{
  "contractName": "IcoDDBB",
  "abi": [
    {
      "constant": true,
      "inputs": [
        {
          "name": "",
          "type": "uint256"
        }
      ],
      "name": "arrayIdICOs",
      "outputs": [
        {
          "name": "",
          "type": "uint256"
        }
      ],
      "payable": false,
      "stateMutability": "view",
      "type": "function"
    },
    {
      "constant": true,
      "inputs": [],
      "name": "owner",
      "outputs": [
        {
          "name": "",
          "type": "address"
        }
      ],
      "payable": false,
      "stateMutability": "view",
      "type": "function"
    },
    {
      "inputs": [],
      "payable": false,
      "stateMutability": "nonpayable",
      "type": "constructor"
    },
    {
      "anonymous": false,
      "inputs": [
        {
          "indexed": false,
          "name": "id",
          "type": "uint256"
        },
        {
          "indexed": false,
          "name": "name",
          "type": "string"
        },
        {
          "indexed": false,
          "name": "website",
          "type": "string"
        },
        {
          "indexed": false,
          "name": "oppening",
          "type": "string"
        },
        {
          "indexed": false,
          "name": "closing",
          "type": "string"
        },
        {
          "indexed": false,
          "name": "icoOwner",
          "type": "address"
        }
      ],
      "name": "Register",
      "type": "event"
    },
    {
      "constant": false,
      "inputs": [
        {
          "name": "name",
          "type": "string"
        },
        {
          "name": "website",
          "type": "string"
        },
        {
          "name": "token",
          "type": "address"
        },
        {
          "name": "opppening",
          "type": "string"
        },
        {
          "name": "closing",
          "type": "string"
        }
      ],
      "name": "register",
      "outputs": [],
      "payable": false,
      "stateMutability": "nonpayable",
      "type": "function"
    },
    {
      "constant": true,
      "inputs": [],
      "name": "numberOfIcos",
      "outputs": [
        {
          "name": "",
          "type": "uint256"
        }
      ],
      "payable": false,
      "stateMutability": "view",
      "type": "function"
    },
    {
      "constant": true,
      "inputs": [],
      "name": "getIdIcos",
      "outputs": [
        {
          "name": "",
          "type": "uint256[]"
        }
      ],
      "payable": false,
      "stateMutability": "view",
      "type": "function"
    },
    {
      "constant": true,
      "inputs": [
        {
          "name": "id",
          "type": "uint256"
        }
      ],
      "name": "getICOnameByID",
      "outputs": [
        {
          "name": "",
          "type": "string"
        }
      ],
      "payable": false,
      "stateMutability": "view",
      "type": "function"
    },
    {
      "constant": true,
      "inputs": [
        {
          "name": "id",
          "type": "uint256"
        }
      ],
      "name": "getwebsiteByID",
      "outputs": [
        {
          "name": "",
          "type": "string"
        }
      ],
      "payable": false,
      "stateMutability": "view",
      "type": "function"
    },
    {
      "constant": true,
      "inputs": [
        {
          "name": "id",
          "type": "uint256"
        }
      ],
      "name": "getTokenAddressByID",
      "outputs": [
        {
          "name": "",
          "type": "address"
        }
      ],
      "payable": false,
      "stateMutability": "view",
      "type": "function"
    },
    {
      "constant": true,
      "inputs": [
        {
          "name": "id",
          "type": "uint256"
        }
      ],
      "name": "getOpeningDateByID",
      "outputs": [
        {
          "name": "",
          "type": "string"
        }
      ],
      "payable": false,
      "stateMutability": "view",
      "type": "function"
    },
    {
      "constant": true,
      "inputs": [
        {
          "name": "id",
          "type": "uint256"
        }
      ],
      "name": "getClosingDateByID",
      "outputs": [
        {
          "name": "",
          "type": "string"
        }
      ],
      "payable": false,
      "stateMutability": "view",
      "type": "function"
    },
    {
      "constant": true,
      "inputs": [
        {
          "name": "id",
          "type": "uint256"
        }
      ],
      "name": "getOwnerAddeByID",
      "outputs": [
        {
          "name": "",
          "type": "address"
        }
      ],
      "payable": false,
      "stateMutability": "view",
      "type": "function"
    }
  ],
  "bytecode": "0x6080604052600060025534801561001557600080fd5b5033600360006101000a81548173ffffffffffffffffffffffffffffffffffffffff021916908373ffffffffffffffffffffffffffffffffffffffff160217905550610f70806100666000396000f3006080604052600436106100af576000357c0100000000000000000000000000000000000000000000000000000000900463ffffffff1680630d499d85146100b4578063296caa251461020f5780634d397f45146102b557806358e08907146102f65780635c3806461461036357806382495eba146104095780638da5cb5b14610475578063bc0d3a58146104cc578063dd7de90614610572578063df0dc1d3146105df578063e5f297201461060a575b600080fd5b3480156100c057600080fd5b5061020d600480360381019080803590602001908201803590602001908080601f0160208091040260200160405190810160405280939291908181526020018383808284378201915050505050509192919290803590602001908201803590602001908080601f0160208091040260200160405190810160405280939291908181526020018383808284378201915050505050509192919290803573ffffffffffffffffffffffffffffffffffffffff169060200190929190803590602001908201803590602001908080601f0160208091040260200160405190810160405280939291908181526020018383808284378201915050505050509192919290803590602001908201803590602001908080601f01602080910402602001604051908101604052809392919081815260200183838082843782019150505050505091929192905050506106b0565b005b34801561021b57600080fd5b5061023a60048036038101908080359060200190929190505050610a97565b6040518080602001828103825283818151815260200191508051906020019080838360005b8381101561027a57808201518184015260208101905061025f565b50505050905090810190601f1680156102a75780820380516001836020036101000a031916815260200191505b509250505060405180910390f35b3480156102c157600080fd5b506102e060048036038101908080359060200190929190505050610b4e565b6040518082815260200191505060405180910390f35b34801561030257600080fd5b5061032160048036038101908080359060200190929190505050610b71565b604051808273ffffffffffffffffffffffffffffffffffffffff1673ffffffffffffffffffffffffffffffffffffffff16815260200191505060405180910390f35b34801561036f57600080fd5b5061038e60048036038101908080359060200190929190505050610bb0565b6040518080602001828103825283818151815260200191508051906020019080838360005b838110156103ce5780820151818401526020810190506103b3565b50505050905090810190601f1680156103fb5780820380516001836020036101000a031916815260200191505b509250505060405180910390f35b34801561041557600080fd5b5061041e610c67565b6040518080602001828103825283818151815260200191508051906020019060200280838360005b83811015610461578082015181840152602081019050610446565b505050509050019250505060405180910390f35b34801561048157600080fd5b5061048a610cbf565b604051808273ffffffffffffffffffffffffffffffffffffffff1673ffffffffffffffffffffffffffffffffffffffff16815260200191505060405180910390f35b3480156104d857600080fd5b506104f760048036038101908080359060200190929190505050610ce5565b6040518080602001828103825283818151815260200191508051906020019080838360005b8381101561053757808201518184015260208101905061051c565b50505050905090810190601f1680156105645780820380516001836020036101000a031916815260200191505b509250505060405180910390f35b34801561057e57600080fd5b5061059d60048036038101908080359060200190929190505050610d9c565b604051808273ffffffffffffffffffffffffffffffffffffffff1673ffffffffffffffffffffffffffffffffffffffff16815260200191505060405180910390f35b3480156105eb57600080fd5b506105f4610ddb565b6040518082815260200191505060405180910390f35b34801561061657600080fd5b5061063560048036038101908080359060200190929190505050610de8565b6040518080602001828103825283818151815260200191508051906020019080838360005b8381101561067557808201518184015260208101905061065a565b50505050905090810190601f1680156106a25780820380516001836020036101000a031916815260200191505b509250505060405180910390f35b60e06040519081016040528060025481526020018681526020018581526020018473ffffffffffffffffffffffffffffffffffffffff1681526020018381526020018281526020013373ffffffffffffffffffffffffffffffffffffffff16815250600080600254815260200190815260200160002060008201518160000155602082015181600101908051906020019061074c929190610e9f565b506040820151816002019080519060200190610769929190610e9f565b5060608201518160030160006101000a81548173ffffffffffffffffffffffffffffffffffffffff021916908373ffffffffffffffffffffffffffffffffffffffff16021790555060808201518160040190805190602001906107cd929190610e9f565b5060a08201518160050190805190602001906107ea929190610e9f565b5060c08201518160060160006101000a81548173ffffffffffffffffffffffffffffffffffffffff021916908373ffffffffffffffffffffffffffffffffffffffff160217905550905050600160025490806001815401808255809150509060018203906000526020600020016000909192909190915055507f0bb7e3d643af2c86e8bb97065d262d9eb69f4ca61cdbbcaa8fba4ccee02ee44c600254858785853360405180878152602001806020018060200180602001806020018673ffffffffffffffffffffffffffffffffffffffff1673ffffffffffffffffffffffffffffffffffffffff16815260200185810385528a818151815260200191508051906020019080838360005b838110156109105780820151818401526020810190506108f5565b50505050905090810190601f16801561093d5780820380516001836020036101000a031916815260200191505b50858103845289818151815260200191508051906020019080838360005b8381101561097657808201518184015260208101905061095b565b50505050905090810190601f1680156109a35780820380516001836020036101000a031916815260200191505b50858103835288818151815260200191508051906020019080838360005b838110156109dc5780820151818401526020810190506109c1565b50505050905090810190601f168015610a095780820380516001836020036101000a031916815260200191505b50858103825287818151815260200191508051906020019080838360005b83811015610a42578082015181840152602081019050610a27565b50505050905090810190601f168015610a6f5780820380516001836020036101000a031916815260200191505b509a505050505050505050505060405180910390a16001600254016002819055505050505050565b60606000808381526020019081526020016000206004018054600181600116156101000203166002900480601f016020809104026020016040519081016040528092919081815260200182805460018160011615610100020316600290048015610b425780601f10610b1757610100808354040283529160200191610b42565b820191906000526020600020905b815481529060010190602001808311610b2557829003601f168201915b50505050509050919050565b600181815481101515610b5d57fe5b906000526020600020016000915090505481565b600080600083815260200190815260200160002060060160009054906101000a900473ffffffffffffffffffffffffffffffffffffffff169050919050565b60606000808381526020019081526020016000206002018054600181600116156101000203166002900480601f016020809104026020016040519081016040528092919081815260200182805460018160011615610100020316600290048015610c5b5780601f10610c3057610100808354040283529160200191610c5b565b820191906000526020600020905b815481529060010190602001808311610c3e57829003601f168201915b50505050509050919050565b60606001805480602002602001604051908101604052809291908181526020018280548015610cb557602002820191906000526020600020905b815481526020019060010190808311610ca1575b5050505050905090565b600360009054906101000a900473ffffffffffffffffffffffffffffffffffffffff1681565b60606000808381526020019081526020016000206001018054600181600116156101000203166002900480601f016020809104026020016040519081016040528092919081815260200182805460018160011615610100020316600290048015610d905780601f10610d6557610100808354040283529160200191610d90565b820191906000526020600020905b815481529060010190602001808311610d7357829003601f168201915b50505050509050919050565b600080600083815260200190815260200160002060030160009054906101000a900473ffffffffffffffffffffffffffffffffffffffff169050919050565b6000600180549050905090565b60606000808381526020019081526020016000206005018054600181600116156101000203166002900480601f016020809104026020016040519081016040528092919081815260200182805460018160011615610100020316600290048015610e935780601f10610e6857610100808354040283529160200191610e93565b820191906000526020600020905b815481529060010190602001808311610e7657829003601f168201915b50505050509050919050565b828054600181600116156101000203166002900490600052602060002090601f016020900481019282601f10610ee057805160ff1916838001178555610f0e565b82800160010185558215610f0e579182015b82811115610f0d578251825591602001919060010190610ef2565b5b509050610f1b9190610f1f565b5090565b610f4191905b80821115610f3d576000816000905550600101610f25565b5090565b905600a165627a7a72305820bb33ff94ee06edc84e81db4b638dc85cb6cd3da2fe0dbef1aa9c7c117413d4ca0029",
  "source": "pragma solidity ^0.4.4;\n\ncontract IcoDDBB   {\n    \n    struct ICO {\n        uint id;\n        string name;\n        string website;\n        address tokenContract;\n        string openingDate;\n        string closingDate;\n        //uint tokenPrice;\n        address owner; \n        //address ERC2contract; // guardo la dir del contrato que crea el token de la ico asociado\n    }\n    \n    //mapping (address => ICO) private icoListAdd;\n    //address[] public addrIcos;\n   \n    mapping (uint => ICO) private icoList; // Diccionario (id -> ICO)\n    uint[] public arrayIdICOs; // todos los id's\n    uint id_counter = 0;\n    \n    address public owner;\n    \n    // EVENTS\n    event Register(uint id, string name,string website, string oppening, string closing, address icoOwner);\n    \n    /*\n    * Constructor del Smart Contract\n    */\n    //function IcoDDBB() public {\n    constructor() public {\n        owner = msg.sender;\n    }\n      \n    /*\n    * Funcion registart una nueva ICO en la plataforma\n    */\n    function register(string name, string website, address token,  string opppening, string closing) public {\n       \n       //icoList[id_counter] = ICO(id_counter, name, token, opppening, closing, tokenPric, msg.sender);\n       icoList[id_counter] = ICO(id_counter, name, website, token, opppening, closing, msg.sender);\n       arrayIdICOs.push(id_counter);\n       \n       emit Register(id_counter, website, name, opppening, closing, msg.sender);// lanzamos evento \n       \n       id_counter = id_counter + 1; // actualizamos contador de ICOs\n    }\n    \n    //////////////////////////////////////////////////////////////////////////\n    //                                                                      //\n    //                      GETTER FUNCTIONS                                //\n    //                                                                      //\n    //////////////////////////////////////////////////////////////////////////\n    \n    \n    /*\n    * Devuelve el numero de ICOs creadas/registradas\n    */\n    function numberOfIcos() public constant returns (uint) {\n        return arrayIdICOs.length;\n    }\n    \n    /*\n    * Devuleve el array con todos los id's nde las ICOs\n    */\n    function getIdIcos ()  public constant returns (uint[]) {\n        return arrayIdICOs;\n    }\n    \n    /*\n    * Devuleve el nombre de la ICO dado su id\n    */\n    function getICOnameByID(uint id) public constant returns (string) {\n        return icoList[id].name;\n    }\n\n    /*\n    * Devuleve la url del sitio web de la ICO dado su id\n    */\n    function getwebsiteByID(uint id) public constant returns (string) {\n        return icoList[id].website;\n    }\n\n    /*\n    * Devuleve el precio del token de la ICO dado su id\n    */\n    /*function getTokenPriceByID(uint id) public constant returns (uint) {\n        return icoList[id].tokenPrice;\n    }*/\n    \n    /*\n    * Devuleve el nombre del token de la ICO dado su id\n    */\n    function getTokenAddressByID(uint id) public constant returns (address) {\n        return icoList[id].tokenContract;\n    }\n    \n    /*\n    * Devuleve la fecha de apertura de la ICO dado su id\n    */\n    function getOpeningDateByID(uint id) public constant returns (string) {\n        return icoList[id].openingDate;\n    }\n    \n    /*\n    * Devuleve la fecha de apertura de la ICO dado su id\n    */\n    function getClosingDateByID(uint id) public constant returns (string) {\n        return icoList[id].closingDate;\n    }\n    \n    /*\n    * Devuleve el creador  de la ICO dado su id\n    */\n    function getOwnerAddeByID(uint id) public constant returns (address) {\n        return icoList[id].owner;\n    }\n}",
  "sourcePath": "/home/sofiavidal/Escritorio/React Routing/React-Route_ICO-Plataform/ico_plataform/src/contracts/IcoDDBB.sol",
  "compiler": {
    "name": "solc",
    "version": "0.4.24+commit.e67f0147.Emscripten.clang"
  },
  "schemaVersion": "2.0.0",
  "updatedAt": "2018-06-24T14:06:16.411Z"
}